:020000040800F2
:1000000000FE00209D0200086D2600084124000823
:1000100069260008711200086D2900080000000020
:10002000000000000000000000000000752600082D
:1000300075120008000000007126000879260008EB
:10004000B7020008B7020008B7020008B7020008AC
:10005000B7020008B7020008B7020008B70200089C
:10006000B7020008B7020008B7020008B70200088C
:10007000B7020008B7020008B7020008B70200087C
:10008000B7020008B7020008B7020008B70200086C
:10009000B7020008B7020008B7020008B70200085C
:1000A000B7020008B7020008B7020008B70200084C
:1000B00041270008B7020008B7020008B70200088D
:1000C000B7020008B7020008B7020008B70200082C
:1000D000B7020008B7020008B7020008B70200081C
:1000E000B7020008B7020008B7020008B70200080C
:1000F000B7020008B7020008B7020008B7020008FC
:10010000B7020008B7020008B7020008B7020008EB
:10011000B7020008B7020008B7020008B7020008DB
:10012000B7020008B7020008B7020008B7020008CB
:10013000B7020008B7020008B7020008B7020008BB
:10014000B7020008B7020008B7020008B7020008AB
:10015000B7020008B7020008B7020008B70200089B
:10016000B7020008B7020008B7020008B70200088B
:10017000B7020008B7020008B7020008000000003C
:10018000B7020008B702000800F002F800F076F8A5
:100190000AA090E8000C82448344AAF10107DA45E2
:1001A00001D100F06BF8AFF2090EBAE80F0013F0BE
:1001B000010F18BFFB1A43F001031847A8A7080056
:1001C000C8A708000A444FF0000C10F8013B13F0D8
:1001D000070408BF10F8014B1D1108BF10F8015BA0
:1001E000641E05D010F8016B641E01F8016BF9D193
:1001F00013F0080F1EBF10F8014BAD1C0C1B09D1EA
:100200006D1E58BF01F801CBFAD505E014F8016B5B
:1002100001F8016B6D1EF9D59142D6D370470000ED
:100220000023002400250026103A28BF78C1FBD8FF
:10023000520728BF30C148BF0B60704766290CF0D9
:100240000386642900F08A81782900F0C38173292C
:1002500000F01B86002070471FB50CF0E8FD9DE8FC
:10026000030000F03BFB00F02BFE04000020002107
:100270000CF0A6FAE0601FBD10B510BD00F045FF00
:100280001146FFF7E9FF08F031FB00F063FF03B40C
:10029000FFF7F2FF03BC02F06BFB00000948804748
:1002A00009480047FEE7FEE7FEE7FEE7FEE7FEE758
:1002B000FEE7FEE7FEE7FEE704480549054A064B70
:1002C000704700002D2700088901000800EE00207B
:1002D00000FE002000F6002000F60020704770B5F8
:1002E000064600F0DFFA056806F10B0020F007046F
:1002F000B4429CBF002070BD2B466A68BAB110683A
:10030000A04210D304F1080188423CBF50685860F5
:1003100007D35168101941601168091B01605860CA
:100320001460101D70BD13465268002AE7D12146A3
:10033000284600F0BFFA0028DED170BD70B5044633
:10034000051F00F0AFFA0068002C14BF446870BDB0
:10035000002C18BFAC423CBF20466468F8D301684B
:100360000A18AA4218BF456003D12A6805461144FD
:10037000016028684119A1421CBF6C6070BD6168B2
:10038000696021680844286070BD53EA020C00F0DF
:1003900069802DE9F04B4FF00006002B1FBFB3FA28
:1003A00083F503FA05F424FA05F65E4012BF1643FE
:1003B000B2FA82F502FA05F4C5F120051EBF22FA51
:1003C00005FC44EA0C04203556EA044C4FEA144478
:1003D00018BF641C4FF000084FF00009904271EB09
:1003E000030C39D3002919BFB1FA81F701FA07F6D6
:1003F000B0FA80F700FA07F6C7F120071EBF20FA0F
:1004000007FC46EA0C062037B6FBF4FCA7EB050711
:10041000103F07F01F0BCBF120062CFA06F60CFA62
:100420000BFB44BFB3460026202FA4BF5E464FF00F
:10043000000B5BEA060C08BF4FF0010B19EB0B0930
:1004400048EB0608ABFB027C06FB02CC0BFB03CCA3
:10045000C01B71EB0C01C1E70B4602464146484602
:10046000BDE8F08B13B5084318BF4FF0FF300146CD
:10047000AFF30080BDE81C40704700000FB4044992
:1004800010B503AA029800F005FD10BC5DF814FB3E
:100490000C1000200FB41CB5074B06AA7B4469461C
:1004A0000090059800F0C7FC0020694600F0D6FCDB
:1004B0001CBC5DF814FB0000BD09000070B50446CB
:1004C00085690068C10601D5302600E02026C007F6
:1004D00007D070BDD4E9012130469047206A401C06
:1004E00020626D1EF6D570BD70B504468569007832
:1004F000C00707D170BDD4E9012120209047206AB0
:10050000401C20626D1EF6D570BD70B50C460546C8
:10051000012A05D02878800600D5EA69002302E088
:10052000012305E05B1C934202D2E05C0028F9D174
:10053000A869E618C01AA861286A184428622846E3
:10054000FFF7BCFF04E0D5E9012114F8010B904747
:10055000B442F8D32846FFF7C7FF70BD2DE9F0413C
:100560000646002410687529314616A510D0AFF351
:100570000080002802DA404213A507E031688A07AC
:1005800001D512A502E0490704D511A5012401E017
:10059000AFF3008000210A2206F1240709E0B0FB36
:1005A000F2FCB0FBF2F302FB1C003030785418462A
:1005B000491C0028F3D123462A463046BDE8F041C5
:1005C00000F0CDB9000000002D0000002B0000005D
:1005D0002000000070B504460D4621461068AFF3B8
:1005E00000802188090502D50F4A7A4402E00E4AAC
:1005F0007A440E32002104F1240305E000F00F06D6
:100600000009965D5E54491C0028F7D1207800232C
:10061000000704D5702D02D009B102231132204603
:10062000BDE8704000F09BB94ACB00002DE9F05FB7
:10063000894604464FF0000ADFF824B1FB44C0F8B5
:1006400020A02046E168884700287DD0252806D0D4
:10065000D4E901219047206A401C2062F1E700257F
:100660005F462046E16888472028064607DB312E92
:1006700005D2B81910F8200C08B10543F1E7A80716
:1006800001D525F00405C4F81CA00027C4F818A063
:100690002A2E09D030460AF061FC38B304EB8708F3
:1006A000303EC8F8186019E059F8041B204604EBE6
:1006B00087029161E1688847012F064618D1E069F9
:1006C000002820DA25F020051DE0D8F8180000EBFE
:1006D000800006EB40003038C8F818002046E1687A
:1006E000884706460AF03AFC0028EED1012F0AD0CE
:1006F0002E2E08D12046E16888477F1C0646022F2F
:1007000045F02005C4DBA069002803DA404245F02B
:100710000105A061E80701D025F01005A6B1A6F1FA
:100720004100192802D8203645F400654A46314672
:10073000204625604D46FFF781FD60B1012807D0B6
:10074000ED1D25F0070000E007E000F1080978E75B
:1007500005F1040975E730467AE7206ABDE8F09FA5
:1007600020CB000010B5044603E003F05DF8401C08
:1007700009D014F8010B05490028F6D1BDE8104056
:100780000A2003F051B84FF0FF3010BD0C100020CC
:1007900040EA010310B59B070FD1042A0DD310C8FE
:1007A00008C9121F9C42F8D020BA19BA884201D950
:1007B000012010BD4FF0FF3010BD1AB1D30703D098
:1007C000521C07E0002010BD10F8013B11F8014B4E
:1007D0001B1B07D110F8013B11F8014B1B1B01D16A
:1007E000921EF1D1184610BD10B5203AC0F00B8012
:1007F000B1E81850A0E81850B1E81850A0E8185017
:10080000203ABFF4F5AF5FEA027C24BFB1E818508C
:10081000A0E8185044BF18C918C0BDE810405FEAEE
:10082000827C24BF51F8043B40F8043B08BF70476A
:10083000D20728BF31F8023B48BF11F8012B28BF6F
:1008400020F8023B48BF00F8012B70474FF0000230
:1008500000B5134694469646203922BFA0E80C50B6
:10086000A0E80C50B1F12001BFF4F7AF090728BF91
:10087000A0E80C5048BF0CC05DF804EB890028BF0D
:1008800040F8042B08BF704748BF20F8022B11F036
:10089000804F18BF00F8012B7047704770477047B2
:1008A0007047000000487047880E0020704770476E
:1008B0007047704738B504460A4600206946AFF3D2
:1008C0000080002808BF38BD02460099204600F08D
:1008D000FFFA012038BD012000F010BCF8B5AFF3DD
:1008E0000080054600200C46102000BF0646A819CF
:1008F000A0420DD9324669460020AFF300800700C0
:1009000008BF00F0FBFB0098A04218BF0546C419C1
:10091000FFF7C8FF05600746F01D20F007004619E5
:10092000284600F00AF8B44208BFF8BDA21B3146C1
:100930003868BDE8F84000F0CBBA00210160C0E99A
:10094000011070471020704710B500F0BDFA006824
:1009500010BD10B5044600F0B7FA046010BD2DE9D3
:10096000F0470D4699469246044600F12408016876
:10097000880604D5E06921F01001216000E0012023
:10098000A84201DD471B00E00027A1697A1902EBAC
:100990000900081AA0612078C00602D42046FFF79B
:1009A0008DFD002608E0D4E901211AF806009047E1
:1009B000206A401C761C20624E45F4DB2078C0067D
:1009C0000AD52046FFF77AFD06E0D4E90121302060
:1009D0009047206A401C2062381EA7F10107F4DC12
:1009E00007E0D4E9012118F805009047206A401C6F
:1009F0002062281EA5F10105F3DC2046FFF774FDF7
:100A00002078000602D50220BDE8F0870120FBE730
:100A10002DE9FF4F0C461E464FF0FF378BB0D2E951
:100A20000001DDF860800A908A46C1F30A5505B9D5
:100A30003D46002108464FF00000BAF1000F00F4D7
:100A4000400005DA00EB80004FF4400101EA50005D
:100A50004FEA9059B9F1010F00DDB9460A9850EA02
:100A60004A000ED044F61050A5F2FF3545432F142E
:100A7000B8F1000F1ED07542291E1EDDC9F100021B
:100A80001CE0B8F1010F4FF0000001D0302103E06D
:100A9000F24305E02154401CB042FBDB304600220B
:100AA000002121540B99C1F80880C1E900200FB042
:100AB000BDE8F08FBD1B6D1CDEE74A4600DA6942D7
:100AC00006A800F0A5FA06AB93E8070003AB83E89D
:100AD000070050460A9909F038FA8DE80700A0F59A
:100AE00000501F3800900398002D0ADD42F21F01CC
:100AF0004A460844002303A90390684609F0A2FC73
:100B000009E0A0F500504A461F38002303A90390CE
:100B1000684609F0ACFC8DE807000004000C03D027
:100B20004FF0FF30410800E01046B8F1000F03D04D
:100B30000022009215461EE0751E05D400F0E2F971
:100B4000303262556D1EF9D5B3460122084302D0FA
:100B500000227F1C04E02078302801D100227F1E73
:100B6000002A099784D01DE0112D07DA00F0CAF998
:100B7000303262556D1C50EA0102F5D1084302D0B3
:100B80000098C8B10EE00021681E05E0235C625C9D
:100B900063542254401E491C8142F7DBAB46A81B1C
:100BA000401E0990002004F80B000B98099AC0F829
:100BB0000880C0E9002B7AE711264FF0000857E7BC
:100BC0002DE9F04F88460446D21D22F0070191B06E
:100BD000D1E90001CDE90A0109F0B0FD02460B9808
:100BE000C00F01D02D2007E02068810701D52B2000
:100BF00002E0202101EAC000032A099001D0072A5F
:100C000005DB03464146204600F0C2F90BE120789F
:100C1000800601D5E06900E00620B8F1650F814645
:100C200006D0B8F1660F18D0B8F1670F70D131E077
:100C30000020B9F1110F009001DB112301E009F14F
:100C400001030AAA01A90CA8FFF7E2FEDDE90C7076
:100C5000002609F10105834647E001204B4600903C
:100C60004FF000470AAA01A90CA8FFF7D1FEDDE961
:100C70000DB00C995D46002610B909F101000D1860
:100C8000B9EB050003D4C0F1FF3609F10105A5EB6E
:100C900009002BE0B9F1010F01DA4FF00109002042
:100CA000B9F1110F0090484601DD112300E0034621
:100CB0000AAA01A90CA8FFF7ABFEDDE90C704D46AE
:100CC00000268346207800070AD4AB4500DA5D464B
:100CD00001A8012D04DD411911F8011C302907D0AC
:100CE0004F4502DA17F1040F04DA012082460FE0C3
:100CF0006D1EEEE7002F02DCED1B3E4403E0781C86
:100D0000A84200DD7D1CB81B00F1010A4FF000472E
:100D10002078000703D4AA4501DB4FF0FF3A0021F9
:100D2000B7F1004F0DF143088DF8431024D0022095
:100D30002B23002F01DA7F422D230A21021EA0F16E
:100D4000010000DC5FB197FBF1FC97FBF1F201FBC6
:100D50001C7C17460CF1300C08F801CDEEE7A8F129
:100D6000010003702188090501D5452100E06521B6
:100D7000A0F1010800F8011C09980FA9A1EB0807D0
:100D8000FF1D00B10120411901EBEA70A16938444F
:100D9000081A401EA0612078C00602D42046FFF742
:100DA0008DFB099828B1D4E901219047206A401CA5
:100DB00020622078C00622D52046FFF77FFB1EE088
:100DC000002E04DBB34502DD01A8805D00E0302089
:100DD000D4E901219047206A401C2062761CAAF1C8
:100DE00001005FEA000A0AD100F06AF8C0680168F1
:100DF000405CD4E901219047206A401C2062281EF3
:100E0000A5F10105DCDC07E0D4E9012118F8010BAC
:100E10009047206A401C2062381EA7F10107F3DCCE
:100E20002046FFF761FB032011B041E601694A1C2F
:100E300002610878704700B58FB0CDE9013100211B
:100E4000059105497944CDE9031011466846FFF73D
:100E5000EDFB0FB000BD0000E5FFFFFF0A6802F8E0
:100E6000010B0A60704710B5436913B1AFF30080FE
:100E700001E0FFF74AFB012010BD127800F12401C8
:100E80000A7000224A700122EDE711684FF0FF322C
:100E9000E9E70000074B70B50D467B44FFF7CBFF39
:100EA0000446284600F026F910B14FF0FF3070BD1F
:100EB000204670BD8B29000000487047800E00203E
:100EC00000487047A00E002000487047800E0020A8
:100ED000034640688C46002818BF88423CBF034642
:100EE0004068F8D318681844884207D00CF1030012
:100EF00020F00700001D411A521A0146081D0A6021
:100F0000FFF71CBA30B5B0F10A0271F100034FEAE5
:100F1000900E4EEA817EB0EB0E0061EB91014FEA3C
:100F2000101E4EEA017E10EB0E0041EB11114FEA4C
:100F3000102E4EEA016E10EB0E0041EB11214FEA2C
:100F4000104E4EEA014E10EB0E0041EB11414018DD
:100F500041F100014FEAD00040EA41704FEAD1016F
:100F60004FEA810444EA907410EB800544EB0104DD
:100F70006D1944EB0404521BA3414FF0000348BF1A
:100F80000A3200D530BD401C41F1000130BD0000E7
:100F90002DE9F0411F46044603260168072A01F4A3
:100FA000006004DB08B116A505E016A503E008B152
:100FB00015A500E015A521F010002060A069C01E55
:100FC000A0610FB1401EA0612046FFF777FA4FB134
:100FD000D4E9012138469047206A401C2062C01C99
:100FE000206206E0206AFAE7D4E9012115F8010B36
:100FF0009047761EF8D22046FFF776FABDE8F081DA
:101000004E414E006E616E00494E4600696E6600AC
:101010002DE9F047814616468AB0354878440DC818
:101020008DE80D0032487844801C03AC0DC884E87C
:101030000D0041F69B300844372190FBF1F290FB04
:10104000F1F5A5F1800501FB12041B3C02D56442B9
:10105000012000E00020DFF898A080460027FA4435
:10106000AAF1BE0A0EE0E0070AD03246684607EB56
:10107000470101230AEB810109F0F9F98DE8070026
:1010800064107F1C002CEED1194F7F44AE3F19E055
:10109000E80715D007EB04100DF1180A90E80E00D0
:1010A0008AE80E00C068F04201D1981908903246D3
:1010B000012306A903A809F0DAF903AB83E80700C6
:1010C0006D10641C002DE3D14FF0010332466946D8
:1010D000B8F1000F03A802D009F0B4F901E009F05B
:1010E000C6F9C9E90001C9F808200AB0BDE8F087CF
:1010F00000C20000007B00F08000704710B500F0D7
:1011000037F8BDE8104000F02EB87546FFF7D4FE62
:10111000AE4605006946534620F00700854618B0E4
:1011200020B5FFF7C9F8BDE820404FF000064FF0AA
:1011300000074FF000084FF0000BAC46ACE8C009C8
:10114000ACE8C009ACE8C009ACE8C00921F007016F
:101150008D46704710B50446AFF300802046BDE8C9
:101160001040FFF794B8002801D001F001BC70478F
:1011700010B5012805D0002103A000F05FF8012080
:1011800010BD09A1F8E7000053494752544D454DA1
:101190003A204F7574206F662068656170206D6518
:1011A0006D6F7279000000003A2048656170206D13
:1011B000656D6F727920636F72727570746564000B
:1011C00030B44FF0013C50F8042B51F8043BCCFAFA
:1011D00052F4D51A20D1FCB950F8042B51F8043B35
:1011E000CCFA52F4D51A17D1B4B950F8042B51F8EF
:1011F000043BCCFA52F4D51A0ED16CB950F8042B3A
:1012000051F8043BCCFA52F4D51A05D1002CDAD0AF
:1012100030BC4FF00000704729BAB1FA81F111F0EB
:101220001801D1F120008440F2D1CA40CB4012F025
:10123000FF0213F0FF0330BCD01A704770B50546AB
:101240000C460A2000E06D1C01F094FB35B12878B3
:101250000028F8D102E0641C01F08CFB14B1207866
:101260000028F8D1BDE870400A2001F083BB0000DF
:10127000FEE7000070470000EFF3108072B600BF79
:10128000FEE70000B0B5B3F5804F03461AD153F81E
:1012900022C00020CCF6F0700CEA000E91E831007C
:1012A000D1F818C040EA0E0040EA0410C96840EACC
:1012B000052040EA0C0040EA0141002043F82210DA
:1012C000B0BD00BF6FF07041002043F82210B0BDE8
:1012D0002DE9F04F83B00B68024650F8230001F16E
:1012E000240B20F0010042F82300D1E90230D1E9BB
:1012F00000CE01908869D1E9049A0290C86BD1E9C7
:10130000077600909BE83008D1F8308052F82C0026
:101310008021CFF6F07108404EEA0301082B08BF88
:1013200041F04001019B194341EA090141EA0A01E8
:10133000394331432143294341EA0B01029B41EAEE
:1013400008011943009B19430143002042F82C1067
:1013500003B0BDE8F08F0000F0B500EB82025068EA
:10136000D1E902E400F0404CD1E90030D1E9045663
:1013700043EA0C03002743EA0010CFF6F07740EA77
:101380000E20896907EB055540EA04402843FE36E4
:10139000084340EA066100205160F0BD002804BF08
:1013A0000120704710B50446407918B101206071E2
:1013B000002010BD00202071204600F005F801201B
:1013C0006071002010BD000081B043F63001C4F20E
:1013D00002010068A1F50362904201D001B070479C
:1013E00000200090086840F480500860086800F40D
:1013F00080500090009801B070470000B0B50446DE
:1014000000F0FAF8054640F20400C2F2000000784D
:10141000611C18BF044400BF00F0EEF8401BA0425E
:10142000FAD3B0BD2DE9F04F82B000F13E4241F653
:10143000004502F1FF77C4F2020508224FEAB72601
:10144000A84208BF0722072E38BF4FEAB7224FF045
:10145000010A002400274FF00008009208E000BFB6
:10146000023708F10108202F04F1040400F0B480D1
:101470000E680AFA08F916EA090FF1D0D1F804A0AB
:101480000AF0030BABF10106012E17D80322866880
:1014900002FA07FECA6826EA0E06BA4032438260A4
:1014A0004268CAF3001522EA090205FA08F54FEA74
:1014B000480C6FEA0E062A4342600BE00322BA4052
:1014C000D643BBF1030FBC4604D1BC464FF0030B1F
:1014D00022E000BFC2688D68324005FA0CF52A434D
:1014E000BBF1020FC26017D16FF0030202EA58028B
:1014F000024404F01C030F25D2F820E005FA03FA99
:101500000D692EEA0A0E05FA03F343EA0E0313628D
:10151000D1F804A00AF0030B02680BFA0CF3324076
:101520001A431AF4403F4FF0010A026098D000229B
:1015300043F644030192C4F202031A6843F6004ED4
:1015400042F480421A601A68C4F2010E02F480422A
:101550000192019A28F003024FF6084C7244CFF62C
:10156000FF7C52F80C3004F00C060F25B540AB435D
:10157000009D05FA06F6334342F80C30DEF80820E9
:101580004B6842EA090643F60C4CDD0258BF22EADA
:101590000906CEF80860C4F2010CDCF800209D02B8
:1015A00042EA090658BF22EA0906CCF80060DEF8D4
:1015B00004209D0342EA090658BF22EA0906CEF834
:1015C0000460DEF80020DB0342EA090658BF22EA85
:1015D0000906CEF8006043E702B0BDE8F08F0000D6
:1015E0000069084018BF012070470000002A08BFAA
:1015F00009048161704700004EF6FC50C2F2000001
:101600000068704740F204004EF6FC51C2F2000040
:10161000C2F2000100780A681044086070470000B8
:1016200080B543F60040C4F20200016841F4007145
:101630000160016841F480610160016841F48071DA
:101640000160032000F084F80F2000F005F800F09E
:1016500027F8002080BD000070B540F20406C2F2F9
:10166000000640F230713278C2F200014FF47A7312
:101670000968B3FBF2F20446B1FBF2F1084600F050
:10168000C7FB0F2C4FF0010508D838B94FF0FF30D9
:1016900021460022002500F02FF87460284670BD16
:1016A00082B0002043F640010190C4F202014A6872
:1016B00042F480424A604A6802F480420192019AF0
:1016C0000090086840F080500860086800F0805082
:1016D0000090009802B07047002848BF704700F0A3
:1016E0001F01012202FA01F14EF200124009CEF26E
:1016F000000242F82010704710B54EF60C5CCEF296
:10170000000CDCF80030C3F3022E8EF00704042C2A
:1017100028BF0424BEF103034FF0FF3E0EFA04F489
:1017200038BF0023A14399400EFA03F39A431143B3
:1017300000F00F02043A624409010C3200F16043E8
:10174000B0F1FF3FC8BF03F56442117010BD000047
:101750004EF60C51CEF200010A684FF6FF031A4014
:1017600060F30A2242F0806040F0FD70086070472C
:101770002DE9F041002800F08B8043F60808C4F200
:1017800002080446D8F8F8030D4600F00700884226
:1017900007D288F8F853D8F8F80300F00700A842F9
:1017A00076D12068810717D5410705D5D8F80010F4
:1017B00041F4E051C8F80010010705D5D8F8001031
:1017C00041F46041C8F80010D8F80010A26821F078
:1017D000F0011143C8F80010C0073FD1D8F8F80352
:1017E00000F00700A84207D988F8F853D8F8F803A2
:1017F00000F00700A8424BD12068410707D5D8F870
:101800000010E26821F4E0511143C8F8001000070D
:1018100008D5D8F80000216920F4604040EAC100F2
:10182000C8F8000000F07CF8D8F800104DF25622FD
:10183000C1F30311C0F60002515C40F2307220FA8D
:1018400001F140F20800C2F200000068C2F200029A
:101850001160FFF701FF0020BDE8F0816068811E84
:10186000022907D258F8081C89015CBF0120BDE895
:10187000F08111E0012807D158F8081C89035CBFEA
:101880000120BDE8F08107E058F8081C890703D45F
:101890000120BDE8F08100BFD8F8001021F003015D
:1018A0000843C8F80000FFF7A7FE064641F2883754
:1018B000D8F80000616800F00C00B0EB810F8DD00B
:1018C000FFF79AFE801BB842F2D90320BDE8F081F1
:1018D00040F2307043F60801C2F20000C4F2020187
:1018E000006809684DF26622C1F38221C0F6000249
:1018F000515CC8407047000040F2307043F6080168
:10190000C2F20000C4F20201006809684DF26622CA
:10191000C1F34231C0F60002515CC840704700007C
:1019200010B543F60404C4F20204606800F00C0031
:1019300008280BD0042819BF42F20040C0F2F4007E
:1019400047F64000C0F27D1010BD00BF206821683E
:101950002368490247F64001C0F27D1100F03F02C2
:10196000C3F388105CBF42F20041C0F2F401A1FB56
:1019700000010023FEF709FD21680222C1F30141A5
:1019800002EB4101B0FBF1F010BD00002DE9F04188
:1019900082B000286AD00446007843F60006C007EB
:1019A000C4F202060BD0B06800F00C00042840F02E
:1019B000A1803068800302D56068002856D0207866
:1019C00080071AD5B06810F00C0F09D0B06800F08D
:1019D0000C00082840F0A8807068400200F1A48044
:1019E0003068800702D5E06801283FD1306821695E
:1019F00020F0F80040EAC10030602078000739D4B8
:101A0000207840074ED4A5695DB3B06800F00C00A3
:101A1000082840F0BD80012D28D07068E16900F4ED
:101A200080028A4222D1216A00F03F028A421DD1FF
:101A300047F6C071626A0140B1EB821F16D1A26AFB
:101A40000023CFF6FF7303EBC23200F440316FF393
:101A50000F0291420AD1E16A00F07060B0EB016FB1
:101A600004D1002002B0BDE8F08100BF012002B027
:101A7000BDE8F0816069002840F20000C4F2472010
:101A800076D00121C0F8801EFFF7B6FD054600BFE5
:101A9000706F8007B4D4FFF7AFFD401B0228F7D961
:101AA000DDE000BF306C10F080580AD100200190BA
:101AB000306C40F080503064306C00F08050019009
:101AC000019847F20007C4F200073868C00541D406
:101AD000386840F480703860FFF78EFD054600BF1F
:101AE0003868C00536D4FFF787FD401B0228F7D9B8
:101AF000B5E000BFB06800F00C00082803D17068A2
:101B000040023FF556AF6068B0F5803F07D0B0F5B2
:101B1000A02F40F08D80306840F480203060306825
:101B200040F4803030608DE0E068002852D0002022
:101B3000C4F2472001210160FFF75EFD054600BFAA
:101B4000306880073FF552AFFFF756FD401B022873
:101B5000F6D984E0A068012805D005284ED1306F61
:101B600040F004003067306F40F0010030674FE014
:101B70000021C0F8801EFFF73FFD0546706F80070B
:101B80007FF53EAFFFF738FD401B0228F6D966E02F
:101B90000027C4F2472700203866FFF72DFD022DED
:101BA00005460BD1306880015ED5FFF725FD401B4F
:101BB00002284FF00300F5D954E700BF30688001D8
:101BC0007FF54FAFFFF718FD401B02284FF00300D1
:101BD000F4D947E70020C4F2472000210160FFF755
:101BE0000BFD0546306880077FF507AFFFF704FD62
:101BF000401B02284FF00300F4D933E7316F00286F
:101C000021F001013167316F21F0040131674DD0BE
:101C1000FFF7F2FC054641F2883700BF306F8007BE
:101C200056D4FFF7E9FC401BB842F7D917E000BFD4
:101C30003168002821F480313160316821F480213D
:101C400031604FD0FFF7D8FC054600BF30688003F5
:101C50003FF5B5AEFFF7D0FC401B6428F6D9032052
:101C600002B0BDE8F08100BF04F11C052FCD084390
:101C70000021CFF6FF7140EA821001EBC3316FF310
:101C80000F0140EA05600843706001203866FFF7E5
:101C9000B3FC0446306880013FF5E3AEFFF7ACFCCF
:101CA000001B02284FF00300F4D9DBE6FFF7A4FC89
:101CB000054641F2883700BF306F800708D5FFF72F
:101CC0009BFC401BB8424FF00300F5D9CAE600BFA9
:101CD000B8F1000F7FF497AE306C20F08050306484
:101CE00091E600BFFFF788FC054600BF306880031F
:101CF0007FF565AEFFF780FC401B64284FF00300C2
:101D0000F4D9AFE6002804BF0120704770B504463F
:101D100090F8490015460E4628B9002084F848007E
:101D2000204600F01DF8206804F10801FFF7D0FA02
:101D30002068A2683146FFF70FFBD4E90102236B4C
:101D40002946FFF79FFA2068A16850F8212042F049
:101D5000010240F82120012084F84900002070BDD4
:101D60002DE9F04786B041F20800C2F20000017888
:101D7000002949D1012101704FF0000943F63800D4
:101D8000CDF80490C4F20200016840F6004441F02E
:101D9000010101600068C4F2020400F0010001903A
:101DA000019801AD4FF480584FF0020A03260C272A
:101DB00004F500602946CDF80480CDE902A9049617
:101DC0000597FFF72FFB4FF68070CDE9010A04F568
:101DD00080602946CDE903960597FFF723FB4CF277
:101DE0003370CDE9010A20462946CDE903960597CF
:101DF000FFF718FB04F540602946CDE9018ACDE9DB
:101E000003960597FFF70EFB06B0BDE8F0870000CC
:101E1000411E0020B0EB116F1CBF012070474EF235
:101E20001002CEF2000251604EF62351CEF20001B4
:101E3000F0230B700721906011607047704700001D
:101E40007047000010B590F83C20012A4FF00202C4
:101E500051D080F83D200268D2F804E0D2F808C0E2
:101E60000C682EF07003234341F2FF74C4F20004A7
:101E7000A24253600EDC40F2FF73C4F200039A42A8
:101E800016DCB2F1804F2BD040F20043C4F20003C5
:101E900024E000BF40F2FF33C4F201039A4213DC96
:101EA00041F60003C4F200039A4219D0002313E064
:101EB00040F60003C4F200039A4211D040F60043FA
:101EC000C4F200030AE000BF44F20003C4F20103BD
:101ED0009A4205D040F20043C4F201039A4204D171
:101EE00049682CF08003194391600121002280F899
:101EF0003D1080F83C20104610BD0000002804BFB3
:101F00000120704710B5044690F83D0028B9002024
:101F100084F83C00204600F01FF8022084F83D00C1
:101F20002068211D00F012FC012084F8460084F88E
:101F30003E0084F83F0084F8400084F8410084F8B3
:101F4000420084F8430084F8440084F8450084F893
:101F50003D00002010BD000080B582B00068B0F1E7
:101F6000804F1CBF02B080BD0020019043F64000AE
:101F7000C4F202000168002241F001010160006822
:101F8000002100F00100019001981C20FFF7B4FB34
:101F90001C2002B0BDE88040FFF79EBB90F83D10CA
:101FA00001291CBF01207047022180F83D10006804
:101FB00041F2FF72C168C4F20002904241F0010197
:101FC000C1600DDC40F2FF71C4F20001884215DCF3
:101FD000B0F1804F2AD040F20041C4F2000123E06A
:101FE00040F2FF31C4F20101884213DC41F60001E6
:101FF000C4F20001884219D0002113E040F600012C
:10200000C4F20001884211D040F60041C4F2000140
:102010000AE000BF44F20001C4F20101884205D089
:1020200040F20041C4F20101884206D1816801F00A
:102030000701062904BF00207047016841F0010133
:10204000016000207047000080B590F83C20012A14
:102050004FF0020200F0C28080F83D20D0F800C0AE
:102060004FF67772DCF8083023EA0202CCF8082039
:102070000B684F2B28DC1F2B44DD202B45D0302B49
:1020800043D0402B40F0AC80D1F804E0C968DCF8C4
:102090002030DCF8202022F00102CCF82020DCF8EF
:1020A000182022F0F00242EA011123F00A0242EA6B
:1020B0000E02CCF81810CCF82020DCF8081041F003
:1020C000470121F0300180E06F2B27DDB3F5005F81
:1020D00048D0B3F5805F7AD0702B40F08180D1E991
:1020E00001E3C968DCF8082043EA0E0322F47F42CA
:1020F00043EA01211143CCF80810DCF8081041F044
:10210000770162E00BB1102B6AD1DCF8081021F0E6
:102110007001194341F0070157E000BF502B35D043
:10212000602B5DD1D1F804E0C968DCF8203023F0E1
:102130001003CCF82030DCF81830DCF8202023F431
:10214000704322F0A00243EA013142EA0E12CCF8B9
:102150001810CCF82020DCF8081041F0670121F0BD
:10216000100132E0D1E901E3C968DCF8082043EA54
:102170000E0322F47F4243EA01211143CCF80810F8
:10218000DCF8081041F480411FE000BFD1F804E002
:10219000C968DCF82030DCF8202022F00102CCF8FD
:1021A0002020DCF8182022F0F00242EA011123F08E
:1021B0000A0242EA0E02CCF81810CCF82020DCF813
:1021C000081041F0570121F02001CCF8081000223E
:1021D000012180F83D10002180F83C10104680BDA0
:1021E0000122F5E77047000010B501680446086950
:1021F000800744BFC8685FEA807039D40869400727
:1022000044BFC8685FEA40703ED40869000744BF15
:10221000C8685FEA007045D40869C00644BFC86852
:102220005FEAC0604AD40869C0071CBFC8685FEA9B
:10223000C07051D10869000644BFC8685FEA0060F9
:1022400052D40869400644BFC8685FEA406053D46E
:102250000869800646BFC8685FEA806010BD6FF0FD
:10226000200220460A61BDE81040FFF7E9BD00BF2B
:102270006FF002000861012020778869800743D051
:102280002046FFF7AFFF45E06FF004000861022031
:102290002077886910F4407F40D02046FFF7A2FFE6
:1022A00042E000BF6FF00800086104202077C86991
:1022B00080073DD02046FFF795FF3FE06FF010000C
:1022C000086108202077C86910F4407F3AD0204682
:1022D000FFF788FF3CE000BF6FF001000861204677
:1022E00000F03EF82168A5E76FF080000861204605
:1022F000FFF7A4FD2168A4E76FF0400008612046C5
:1023000000F036F82168A3E7204600F025F82046C3
:1023100000F024F82168002020776FE7204600F0C5
:102320001BF8204600F01AF82168002020776CE79F
:10233000204600F011F8204600F010F82168002037
:10234000207769E7204600F007F8204600F006F8FD
:1023500021680020207766E7704700007047000082
:102360000068B0F1804F08BF01F03EB87047000030
:1023700070470000002804BF0120704710B50446D4
:1023800090F83D0028B9002084F83C00204600F079
:1023900021F8242084F83D002068C16821F4005110
:1023A000C160204600F070FA2068016921F4904174
:1023B0000161416921F02A014161C16841F4005184
:1023C000C16000202021206484F83D1084F83E1074
:1023D00010BD000080B586B0016841F20000C4F273
:1023E0000100814202D006B080BD00BF002143F64B
:1023F00030020191C4F20202536900F5704043F0CB
:1024000010035361536903F010030193019B019181
:10241000136843F001031360126802F00102019295
:10242000019A4FF4C06201920222CDE902210321F8
:1024300004910721059101A9FEF7F4FF06B080BDC4
:10244000FEE7000080B54EF6F04043F20001C2F214
:102450000000C4F202010160FEF7A0FF002808BFDF
:1024600080BDBDE88040FEF707BF000070B58EB0AC
:102470004EF6F84040F2041CC2F200004FF0204338
:10248000CAF2000C0A244FF0060E0021102680E844
:1024900008504FF480534FF4804C0F22CDE909448B
:1024A00011240125C0E90311C0E90561C161C0E93A
:1024B0000811C0E90A31C0E90CC1816341640223FB
:1024C0000892CDE90C41CDE90052069107A96A4670
:1024D00007930B96CDE90253CDE90464FFF712FC94
:1024E000002818BFFEF7C8FE0EB070BDB0B586B0AC
:1024F000002143F6300005910091C4F20200026809
:1025000040F2004442F0800202600268C4F2020419
:1025100002F080020092009A009102684FF4004598
:1025200042F020020260026802F020020092009A4B
:102530000091026842F010020260026802F010028C
:102540000092009A0091026842F002020260026862
:1025500002F002020092009A0091026842F0080222
:102560000260026802F008020092009A009102687C
:1025700042F001020260026802F001020092009A39
:1025800000910168002241F04001016000684FF4B1
:10259000004100F04000009000982046FFF726F828
:1025A0000120CDE902000220049001A920460195F6
:1025B000FEF738FF06B0B0BD80B586B04EF6485085
:1025C0000021C2F200004FF0804242F2CF034FF0F0
:1025D000C70C0591CDE90311CDE90011C0E9002335
:1025E000C0E9021C01618161FFF788FC002818BF67
:1025F000FEF742FE4FF4805002904EF64850C2F271
:10260000000002A9FFF720FD002818BFFEF734FEE6
:102610004EF64850C2F200006946FFF713FC00284E
:1026200018BFFEF729FE06B080BD000080B54EF64B
:10263000905041F20001C2F20000C4F201010023F7
:102640004FF00C0C4FF4E13280E80E00C0E9033388
:10265000C0E905C3C361FFF78DFE002808BF80BD38
:10266000BDE88040FEF708BEFEE70000FEE7000080
:102670007047000070470000FEF7C4BFB0B592B0CD
:10268000002443F640000B94CDE90944CDE907440A
:102690000594CDE90344CDE901440094C4F202005D
:1026A0000168022541F080510160006800F080500F
:1026B0000090009847F200000094C4F20000016806
:1026C00041F480410160006800F48040009000986F
:1026D0000120099010200A9008200E90A820CDE932
:1026E0000F050420119006A80695CDE90C54FFF7BC
:1026F0004DF928B1EFF3108072B600BFFEE700BFBE
:102700000F20CDE901054FF4A05004904FF4805004
:10271000059001A805210394FFF72AF820B1EFF3F3
:10272000108072B6FEE700BF12B0B0BD4EF6885002
:10273000CEF20000016841F47001016070470000B2
:102740004EF64850C2F20000FFF74EBD10B540F6FD
:10275000FF3E0368C4F2000E40F2004C7045C4F224
:10276000010C27DCB0F1804F31D040F20042C4F2BE
:10277000000290422BD040F60002C4F200029042C8
:1027800025D041F6FF72C4F20002904229DC704568
:102790003CDCB0F1804F5FD040F20042C4F2000256
:1027A000904259D040F60002C4F20002904253D049
:1027B00056E000BF40F60042C4F20002904206D04C
:1027C000604504D00022C4F201029042D9D14A6887
:1027D00023F07003134341F6FF72C4F200029042EB
:1027E000D5DD43F6FF72C4F20102904222DC42F2D0
:1027F0000002C4F2000290422ED00022C4F2010274
:10280000904229D0604527D02AE000BF40F6004220
:10281000C4F2000290421FD041F60002C4F200024E
:10282000904219D041F60042C4F20002904213D007
:1028300016E000BF44F20002C4F2010290420BD045
:1028400044F60002C4F20102904205D044F2004274
:10285000C4F20102904203D1CA6823F440731343C7
:1028600023F080024B69D1F800E08C681A430260C3
:10287000C46240F48062C0F828E0624504BF096980
:1028800001630121416110BD10B504460068D4E91F
:1028900002C22369016921F4405111430161626957
:1028A00043EA0C01E3691143C268194349F20C631E
:1028B0009A431143C1604169A26921F4407141F218
:1028C0000043114340F48062C4F201039A42416123
:1028D00002D1FFF711F801E0FEF7FAFFE169636842
:1028E0001922B1F5004FA0FB02011FD15A00DB0FE6
:1028F000FDF74BFD48F21F51C5F2EB11A0FB012380
:102900005A096FF0630302FB0300322303EBC0009C
:10291000A0FB01014FF4F87000EA111000EB021067
:10292000C1F3421108442168886010BD9A009B0FD2
:10293000FDF72BFD48F21F51C5F2EB11A0FB01235F
:102940005A096FF0630302FB0300322303EB00100C
:10295000A0FB0101F02000EA511000EB0210C1F3CE
:10296000431108442168886010BD0000FEE70000A4
:1029700070470000704700002DE9F04790B0164600
:102980008146052040F638520F4600250090C2F2DD
:102990000002484600210123019509F09FF8824674
:1029A000000635D10DF10808404600F035F850B367
:1029B0008FB1BDF8160070B108F10C04002500BFFE
:1029C00057F825202046294608F058FEBDF8160085
:1029D00001358542F4D386B1BDF80E0068B108F127
:1029E0000404002556F825202046294608F046FE16
:1029F000BDF80E0001358542F4D3D9F8000002A9D4
:102A000000F02AF820B9D9F8000009F0EBF8824666
:102A1000504610B0BDE8F087002804BF0020704782
:102A200080B584B04DF23821C0F60001D1E9001222
:102A300003924DF24022C0F60002D2E90023029137
:102A4000CDE90023694602AA08F0CEFF04B080BD9C
:102A500080B509F0C7F880BD2DE9F0410F46044666
:102A600009F0CEF8002800F08E804EF6E845C2F25C
:102A700000050646284601213A4608F0EFFF804649
:102A8000002800F0838040F25071C2F200010A6811
:102A9000286842F0804240F650230A6000F5107228
:102AA000C2F200038A601D68CA6040F6B412C2F226
:102AB000000245F080411568196000F520719960A9
:102AC000D96045F08041116000F59541C2E90211DD
:102AD00040F6C832C2F20002136840F2EC7143F0D3
:102AE0008043136000F59643C2E9023340F62C326E
:102AF000C2F200021368C2F2000143F08043136087
:102B000000F5803303F5D643C2E9023340F6205284
:102B1000C2F2000213680D6843F08043136000F5B1
:102B2000B833936000F5B633D36040F6AC42C2F2DE
:102B30000002136845F0804543F08043136000F5C0
:102B4000F223C2E9023340F6D802C2F2000213684F
:102B5000886043F08043136000F5C02303F5C93358
:102B6000C2E9023340F66402C2F200021368C86090
:102B700000F5C0200D6043F0804100F5D3301160B6
:102B8000C2E9020007E00020BDE8F08130463021B4
:102B9000122209F008F94EF6E445C2F20005284673
:102BA00001213A4608F044FF0746002861D0286812
:102BB00040F6D851C2F2000140F2C072C1E90200F1
:102BC00000F54461C2F20002C2E9021140F624128B
:102BD000C2F20002C2E9021140F68812C2F20002FB
:102BE000C2E9021140F6242200F57551C2F200023A
:102BF000C2E9021140F69C22C2F20002C2E90211AF
:102C000040F60031C2F2000140F69C32C1E90200F8
:102C100000F5C451C2F20002C2E9021140F61442AA
:102C200000F59341C2F20002C2E9021140F6804170
:102C3000C2F2000140F6F442C1E9020000F544513D
:102C4000C2F20002C2E9021140F63801C2F20001EC
:102C500040F6AC02C1E9020000F50071C2F20002C8
:102C6000C2E9021140F62461C2F20001C1E902008A
:102C700004E030463021132209F095F8204608EA96
:102C8000070509F043F82840BDE8F08180B510B190
:102C900008F0F8FE80BD40F6385040F20012C2F253
:102CA0000000CAF2C012026008F0ECFE80BD000015
:102CB00080B510B109F07DF880BD40F6385040F283
:102CC0000012C2F20000CAF2C012026009F071F8EC
:102CD00080BD000080B509F03CF880BD01F06ABA03
:102CE0002DE9F041002A08BFBDE8F08114460546F1
:102CF0004E1E6FF05F0800BF013C6F1C01F0BCFC72
:102D000008EBD51000F0FE0001F0E0FB01F0FEFC46
:102D1000E8B201F0DBFB01F0F9FC01F0ADFCA12011
:102D200001F0D4FB01F0F2FC002001F095FA054619
:102D300001F0CAFC06F8015F20043D46DCD1BDE885
:102D4000F081000010B5044601F096FC6FF05F00C2
:102D500000EBD41000F0FE0001F0B8FB01F0D6FC4F
:102D6000E0B201F0B3FB01F0D1FC01F085FCA12041
:102D700001F0ACFB01F0CAFC002001F06DFA044642
:102D800001F0A2FC204610BD2DE9F041002A08BF49
:102D9000BDE8F081144605464F1E6FF05F0800BF86
:102DA00017F8016F013C01F067FC08EBD51000F04B
:102DB000FE0001F08BFB01F0A9FCE8B201F086FBFC
:102DC00001F0A4FC304601F081FB01F09FFC01F012
:102DD0007BFC0A2000F022FC200405F10105DFD174
:102DE000BDE8F081B0B50C46054601F045FC6FF03A
:102DF0005F0000EBD51000F0FE0001F067FB01F072
:102E000085FCE8B201F062FB01F080FC204601F095
:102E10005DFB01F07BFC01F057FC0A20BDE8B040EF
:102E200000F0FCBB70B586B0002043F63001019085
:102E3000C4F202010A6841F2004442F002020A6050
:102E40000A68C4F2020402F002020192019A01909F
:102E50000868A4F5805540F020000860086811213A
:102E600000F020000190019801200190CDE90210AE
:102E7000032001AE049028463146FEF7D3FA4FF402
:102E80000060019020463146FEF7CCFA20464FF410
:102E900000610022FEF7AAFB022000F09DFC2846FC
:102EA00001210122FEF7A2FB022000F095FC204642
:102EB0004FF400610122FEF799FB022000F08CFC28
:102EC00006B070BD2DE9F04F83B040F20045C4F26A
:102ED00002050090284601210122FEF787FB02200F
:102EE00000F07AFC05F5805738464FF40061FEF794
:102EF00077FB0290284601210022FEF777FB022093
:102F000000F06AFC284601210122FEF76FFB022037
:102F100000F062FC38464FF40061FEF761FB01905F
:102F2000284601210022FEF761FB022000F054FC3C
:102F3000284601210122FEF759FB022000F04CFC3B
:102F400038464FF40061FEF74BFB834628460121CB
:102F50000022FEF74BFB022000F03EFC2846012138
:102F60000122FEF743FB022000F036FC38464FF406
:102F70000061FEF735FB0646284601210022FEF7D8
:102F800035FB022000F028FC284601210122FEF733
:102F90002DFB022000F020FC38464FF40061FEF7C4
:102FA0001FFB0446284601210022FEF71FFB0220DA
:102FB00000F012FC284601210122FEF717FB022037
:102FC00000F00AFC38464FF40061FEF709FB814629
:102FD000284601210022FEF709FB022000F0FCFB3D
:102FE000284601210122FEF701FB022000F0F4FB3C
:102FF00038464FF40061FEF7F3FA80462846012177
:103000000022FEF7F3FA022000F0E6FB2846012139
:103010000122FEF7EBFA022000F0DEFB38464FF407
:103020000061FEF7DDFA8246284601210022FEF704
:10303000DDFA022000F0D0FB0098F8B138464FF4DA
:1030400000610022FEF7D2FA022000F0C5FB2846FC
:1030500001210122FEF7CAFA022000F0BDFB28463A
:1030600001210022FEF7C2FA022000F0B5FB38462B
:103070004FF400610122FEF7B9FA15E038464FF42B
:1030800000610122FEF7B2FA022000F0A5FB2846FB
:1030900001210122FEF7AAFA022000F09DFB28463A
:1030A00001210022FEF7A2FA022000F095FB02980F
:1030B000002818BF01200199002918BF012141EA09
:1030C00040008000BBF1000F18BF4FF0010B40EA39
:1030D0004B00002E18BF012630448000002C18BF82
:1030E000012440EA4400B9F1000F18BF4FF0010974
:1030F00048448000B8F1000F18BF4FF0010840EAC3
:103100004800BAF1000F18BF4FF0010A5044C0B296
:1031100003B0BDE8F08F000070B540F20045C4F286
:10312000020505F580540646C20920464FF40061A9
:10313000FEF75CFA022000F04FFB28460121012235
:10314000FEF754FA022000F047FB28460121002236
:10315000FEF74CFAC6F3801220464FF40061FEF7EA
:1031600045FA022000F038FB284601210122FEF733
:103170003DFA022000F030FB284601210022FEF734
:1031800035FAC6F3401220464FF40061FEF72EFADE
:10319000022000F021FB284601210122FEF726FA39
:1031A000022000F019FB284601210022FEF71EFA3A
:1031B000C6F3001220464FF40061FEF717FA022012
:1031C00000F00AFB284601210122FEF70FFA022037
:1031D00000F002FB284601210022FEF707FAC6F3A1
:1031E000C00220464FF40061FEF700FA022000F012
:1031F000F3FA284601210122FEF7F8F9022000F037
:10320000EBFA284601210022FEF7F0F9C6F380020E
:1032100020464FF40061FEF7E9F9022000F0DCFAE5
:10322000284601210122FEF7E1F9022000F0D4FA3C
:10323000284601210022FEF7D9F9C6F340022046B4
:103240004FF40061FEF7D2F9022000F0C5FA2846DB
:1032500001210122FEF7CAF9022000F0BDFA28463A
:1032600001210022FEF7C2F906F0010220464FF4C8
:103270000061FEF7BBF9022000F0AEFA28460121FA
:103280000122FEF7B3F9022000F0A6FA2846012138
:103290000022FEF7ABF920464FF400610122BDE8A1
:1032A0007040FEF7A3B90000B0B540F20044C4F28C
:1032B000020404F5805528464FF400610122FEF710
:1032C00095F9204601210122FEF790F9022000F035
:1032D00083FA28464FF400610022FEF787F90220A6
:1032E00000F07AFA204601210022FEF77FF9022041
:1032F000BDE8B04000F070BA10B541F20044C4F22D
:10330000020420464FF400610022FEF76FF902200C
:1033100000F062FAA4F5805001210122FEF766F95F
:10332000022000F059FA20464FF400610122FEF716
:103330005DF90220BDE8104000F04EBA70B541F2D0
:103340000045C4F2020528464FF400610122FEF751
:103350004DF9022000F040FAA5F5805420460121E5
:103360000122FEF743F9022000F036FA28464FF416
:103370000061FEF735F9002658B300BFFA2E0DD2D2
:103380000220013600F028FA28464FF40061FEF7CB
:1033900027F90028F2D100261BE000BF28464FF491
:1033A00000610022FEF722F9022000F015FA204603
:1033B000012101220126FEF719F9022000F00CFA82
:1033C00028464FF400610122FEF710F9022000F0B8
:1033D00003FA204601210022FEF708F9022000F03E
:1033E000FBF9304670BD00002DE9F04F8DB040F67E
:1033F0003464C2F20004616800204FF6FF7A0026B0
:1034000088474EF6D4584EF2A00940F61C7BC2F213
:103410000008C2F20009C2F2000B05E028F826A05D
:103420000136052E00F0F680A08EF040C007F5D0E2
:1034300004EB4605294631F80C2FA2F1490080B271
:103440004008A62800F2B6802F4637F8203FA3F1A7
:10345000490080B24008A62800F2AC8038F8260067
:10346000B94650450C46079504D008EB86014988BB
:1034700007E000BF08EB860043801946104628F895
:1034800026204DF28227C0F6000737F816C00A251D
:1034900008EB8607CDE9005C01F0B2F938F826B0F8
:1034A000218837F8025FB9F80000B1EB0B018846BC
:1034B0000B46A0EB0500049718BF4FF0FF3848BF3C
:1034C0004B4200290146CDE905940896C8BF4FF04C
:1034D0000108002818BF4FF0FF310C9044BF47424D
:1034E0000C970028C8BF01210C980026834288BF92
:1034F00018460B9001304FF0000A4FF000090A9077
:10350000099100BF4AF6AB24A5F14800C2F6AA24EF
:1035100050FB04F0ABF14802411052FB04F201EB06
:10352000D0711C465310C1EBC10003EBD2724EF2B6
:10353000A00302EB8000C2F200034FF07E5743F875
:10354000207090B289B2002201F0AAFA0C990B9F68
:103550000AEB04003144B0EB070AD4BF8246C344EF
:10356000CE1BD8BF0E460999C8BF0D4409F1010909
:103570000A9F1FFA89F023468742C3D20698089E05
:10358000028805984EF6D4580088049940F63464B1
:103590004EF2A00940F61C7B079DC2F20008C2F261
:1035A00000044FF6FF7AC2F20009C2F2000B28F8BD
:1035B00026200880BBF8000018389042BFF630AFD4
:1035C000288C13283FF62CAF4FF6FF7001F0EAF875
:1035D000BBF80000102100914AF6D4011838C0F65B
:1035E0000801019180B20021C82210231F250295F5
:1035F00005F01EF94820482140F2971240F2971337
:10360000009501F05DFA48464FF44461FDF71EF95C
:1036100006E700BF0DB0BDE8F08F000070B580B3C5
:103620004EF6E041C2F2000109784FF47A7251433C
:103630004EF21802431ECEF20002032B00F0030CE0
:1036400020D2BCF1000F1CD052F8040C002307E07C
:1036500033445B1BAE4298BF03448B422E460DD2CF
:103660001568AE42F4D11568AE42F1D11568AE428C
:10367000EED11568AE42F3D0EAE700BFBCF1010F0E
:1036800070D170BD20F0030E002302E004337345B7
:10369000D7D052F8040C002408E000BF2C44A41B2F
:1036A000B54298BF04448C4235460DD21668B542E7
:1036B000F4D11668B542F1D11668B542EED116685C
:1036C000B542F3D0EAE700BF52F8040C002407E04B
:1036D0002C44A41BB54298BF04448C4235460DD2FD
:1036E0001668B542F4D11668B542F1D11668B542F4
:1036F000EED11668B542F3D0EAE700BF52F8040CE9
:10370000002407E02C44A41BB54298BF04448C421B
:1037100035460DD21668B542F4D11668B542F1D1DE
:103720001668B542EED11668B542F3D0EAE700BF9D
:1037300052F8040C002407E02C44A41BB54298BFA7
:1037400004448C423546A1D21668B542F4D11668BD
:10375000B542F1D11668B542EED11668B542F3D044
:10376000EAE700BF52F8040C002307E033445B1B78
:10377000AE4298BF03448B422E460DD21568AE422E
:10378000F4D11568AE42F1D11568AE42EED115689C
:10379000AE42F3D0EAE700BFBCF1020F08BF70BD34
:1037A00052F8040C002309E033445B1BAE4298BF7F
:1037B00003448B422E46BFF464AF00BF1568AE428F
:1037C000F2D11568AE42EFD11568AE42ECD1156862
:1037D000AE42F3D0E8E7000080B54EF218014EF695
:1037E000E042CEF20001C2F2000251F804CC12789D
:1037F000002302FB00FE09E003449B1A904298BF9D
:1038000063447345104628BF80BD00BF0A689042DC
:10381000F2D10A689042EFD10A689042ECD10A686E
:103820009042F3D0E8E7000041F20001C4F2010148
:103830000A68520609D40A6852065CBF0A685FEA41
:10384000426202D40A685206F2D5C2B24A60704798
:103850002DE9F04186B04FF0000843F63000CDF876
:103860000480C4F20200016840F6000441F0040143
:1038700001600168C4F2020401F0040101910199A0
:10388000CDF80480016801AD41F0020101600068DB
:10389000012700F00200019001984FF400500190C0
:1038A000032620462946CDE902770496FDF7BAFDA6
:1038B0000220CDE90108A4F580602946CDE9037610
:1038C000FDF7B0FDFFF7AEFA20464FF4005100229D
:1038D000FDF78CFE1420FFF7A1FE20464FF40051A7
:1038E0000122FDF783FE3220FFF798FEFFF7DCFC94
:1038F0007020FFF711FCFFF721FD0020FFF70CFC03
:10390000FFF71CFD0020FFF707FCFFF717FDFFF78F
:10391000F3FCFFF7C9FC7020FFF7FEFBFFF70EFD7D
:10392000A420FFF7F9FBFFF709FD0020FFF7F4FBE8
:10393000FFF704FDFFF7E0FCFFF7B6FC7020FFF790
:10394000EBFBFFF7FBFC8020FFF7E6FBFFF7F6FC45
:103950001620FFF7E1FBFFF7F1FCFFF7CDFC0C2091
:103960008DF80200FFF7A0FC7020FFF7D5FBFFF7F2
:10397000E5FC8820FFF7D0FBFFF7E0FC0C20FFF709
:10398000CBFBFFF7DBFCFFF7B7FC0DF10201A12039
:10399000022200F023F89DF802009DF8031080F049
:1039A000300281F003031A4305D04A1E022A02D3D3
:1039B00050EA010208D141EA002105A0FCF75EFDB2
:1039C000002006B0BDE8F081012006B0BDE8F0811E
:1039D0004354502049443A25780D0A0070B51546E5
:1039E0000C460646FFF760FC7020FFF795FBFFF7DB
:1039F000A5FCF0B2FFF790FBFFF7A0FCFFF754FC2B
:103A00007120FFF789FBFFF799FC5DB16D42013C26
:103A1000B5F1FF3018BF0120FFF754FA013504F863
:103A2000010FF5D3BDE87040FFF766BC70B582B0FA
:103A30004EF6E144C2F20004217800200131CAB2FE
:103A40000A2A8DF80700217009D3CD235A43D20AE0
:103A500002EB8202A1EB4201090640F067810DF101
:103A6000070102200122FFF7B9FF9DF8075005F07A
:103A70000F00411E042923D84FF0FF3101FA00F056
:103A80004FF4404140F6346661EA0000C2F200069D
:103A9000B0860420FFF7C2FDB08EC00716D1B08EED
:103AA00080074DD4B08E400700F18580B08E0007AE
:103AB00000F1BD80B08EC00600F1F48029E100BFA6
:103AC0000020E90640F0468130E100BF0DF103011E
:103AD00003200422FFF782FF96F84400C00711D1AB
:103AE00040F61C70C2F2000001889DF803009DF8AA
:103AF000042000F00F03891AA1EB0321B18106F124
:103B000020010AE09DF803009DF8041000F00F0268
:103B100041EA0221318406F10C019DF805209DF84F
:103B2000063002F00F0243EA022200F0F000802883
:103B30000A801EBF00203084B081B08E8007B1D5CE
:103B40000DF1030109200422FFF748FF96F8440015
:103B5000C00711D140F61C70C2F2000001889DF828
:103B600003009DF8042000F00F03891AA1EB032144
:103B7000F18106F122010AE09DF803009DF804108E
:103B800000F00F0241EA0221718406F10E019DF856
:103B900005209DF8063002F00F0243EA022200F0F1
:103BA000F00080280A801EBF00207084F081B08E53
:103BB00040077FF57BAF0DF103010F200422FFF7D3
:103BC0000DFF96F84400C00712D140F61C70C2F2F7
:103BD000000001889DF803009DF8042000F00F0309
:103BE000891AA1EB0321318206F124010BE000BF09
:103BF0009DF803009DF8041000F00F0241EA022135
:103C0000B18406F110019DF805209DF8063002F000
:103C10000F0243EA022200F0F00080280A801EBF53
:103C20000020B0843082B08E00077FF543AF0DF1E5
:103C3000030115200422FFF7D1FE96F84400C007C7
:103C400012D140F61C70C2F2000001889DF80300FA
:103C50009DF8042000F00F03891AA1EB0321718263
:103C600006F126010BE000BF9DF803009DF804104B
:103C700000F00F0241EA0221F18406F112019DF8E1
:103C800005209DF8063002F00F0243EA022200F000
:103C9000F00080280A801EBF0020F0847082B08E61
:103CA000C00636D50DF103011B200422FFF796FE56
:103CB00096F84400C00711D140F61C70C2F2000013
:103CC00001889DF803009DF8042000F00F03891A75
:103CD000A1EB0321B18206F128010AE09DF803005F
:103CE0009DF8041000F00F0241EA0221318506F12F
:103CF00014019DF805209DF8063002F00F0243EAFA
:103D0000022200F0F00080280A801EBF00203085CB
:103D1000B082B089318C08434FF0000004BF002509
:103D20008DF8075020700120E90613D140F6346168
:103D3000C2F20001B1F93420002A07D44FF0FF335A
:103D40008B810B844FF4604302E000BF47F6FF73A2
:103D50001A408A862178F12924BF0A21217002B0F5
:103D600070BD00002DE9F04387B0002743F6300016
:103D70000297C4F20200016840F6000641F0040117
:103D800001600168C4F2020601F004010291029987
:103D90000297016802AC41F0020101600068012550
:103DA00000F00200029002984FF4005002904FF091
:103DB000030830462146CDE90355CDF81480FDF7C0
:103DC00031FBCDE90458A6F580654FF0020928467D
:103DD0002146CDE90297FDF725FBFFF723F8304692
:103DE0004FF400510022FDF701FC0A20FFF716FCFA
:103DF00030464FF400510122FDF7F8FB0A20FFF78F
:103E00000DFC28462146CDE90297CDE90478FDF75F
:103E100009FB6420FFF702FC0DF1030148F240109A
:103E2000042200F065F8DDF8030043F23911C0F216
:103E3000310188428DF807701CD026A10DF10300D6
:103E40000522FCF7A5FCA8B124A10DF10300052271
:103E5000FCF79EFC70B14AF6D801C0F608010DF1DE
:103E600003000522FCF794FC20B10124204607B092
:103E7000BDE8F0830DF103041AA02146FCF7FEFA19
:103E80004AF6D801C0F6080120460522FCF780FC5E
:103E900028B940F63450C2F200000A210170022015
:103EA0000DF103058DF8030048F240002946012278
:103EB00000F04AF90A20FFF7B1FB002448F2400065
:103EC000294601228DF8034000F03EF9204607B054
:103ED000BDE8F08339313437000000003131353826
:103EE000000000004354502049443A25730D0A0055
:103EF00070B515460C460646FFF7D6F92820FFF7A1
:103F00000BF9FFF71BFA300AFFF706F9FFF716FA6D
:103F1000F0B2FFF701F9FFF711FAFFF7C5F9292011
:103F2000FFF7FAF8FFF70AFA65B16D42013C00BFEE
:103F3000B5F1FF3018BF0120FEF7C4FF013504F8CA
:103F4000010FF5D3BDE87040FFF7D6B92DE9F04F6A
:103F500083B04EF6EC45C2F20005044628788DF891
:103F60000B400130C1B20A2928700BD3CD22514336
:103F7000C90A01EB8101A0EB4100000602D000203C
:103F8000AFE000BF0DF10B0148F24E100122FFF728
:103F9000AFFF9DF80B4040F6345B2006C2F2000BE9
:103FA0000FD59BF8001004F00F0088420BD80020BA
:103FB0008DF806000DF1060148F24E10012200F0C6
:103FC000C3F89BF8001014F00F024FF0000000F04F
:103FD00088808A4200F2858040F63467C2F200078A
:103FE000BB8E4FF0FF3000FA02F200934FF44043D3
:103FF00063EA0202BA863A4632F80C3F6FF00106D5
:1040000006EB410693533A4632F8203F40F61C78BF
:104010000029C2F2000893534FD04DF26E250026BE
:10402000C0F600050DF1070A45F2105916E000BF71
:10403000B8F80000BDF8091007EB4603421A9DF8D6
:1040400007009DF8081040EA012007EB46019A811D
:1040500008849BF800000136864229D2B88EF040D1
:10406000C007F6D035F8160051460422FFF740FF8E
:10407000B8F80400484507D049F60601884203D045
:1040800047F29671884205D197F84400C007CFD116
:1040900004E000BF97F84400C007C9D0BDF807206E
:1040A0009DF809009DF80A1007EB4603CBE700BF17
:1040B0004EF6EC450138C2F20005B989B8F8002087
:1040C000914204D8398CB8F80220914206D914F0F4
:1040D0000E0F29D0F889798CB88139840020287096
:1040E000012004F08F01802916D140F63461C2F21C
:1040F00000018B8E19B2002940F63461C2F2000132
:1041000006D44FF0FF328A810A844FF4604201E006
:1041100047F6FF721A408A862978F12924BF0A21BE
:10412000297003B0BDE8F08F07F10C0131F81010D1
:10413000009BB98107F1200131F8100038848020FC
:104140008DF80B000120D5E7F0B581B014460D467F
:104150000646FFF7A9F82820FEF7DEFFFFF7EEF886
:10416000300AFEF7D9FFFFF7E9F8F0B2FEF7D4FF07
:10417000FFF7E4F84FF00006B4B1013D674200BF1D
:1041800015F8010FFEF7C8FFFFF7D8F8044601370E
:1041900046F10000002C08BF0028F1D0FFF7ACF872
:1041A000204601B0F0BD00BF0024FFF7A5F820466F
:1041B00001B0F0BDB0B586B0002043F630010190EB
:1041C000C4F202010A6840F2004442F002020A60AE
:1041D0000A68C4F2020402F002020192019A0190FC
:1041E000086801AD40F0020008600868294600F048
:1041F0000200019001984FF4807001900120CDE9F8
:104200000200032004902046FDF70CF94FF40070E3
:1042100001901120029020462946FDF703F920461F
:104220004FF400710022FDF7E1F90220FFF7D4FA04
:1042300020464FF480710122FDF7D8F90220FFF7E4
:10424000CBFA20464FF400710122FDF7CFF902208E
:10425000FFF7C2FA06B0B0BD2DE9F04F83B040F2CF
:104260000045C4F20205019028464FF480710122F6
:10427000FDF7BCF90220FFF7AFFA28464FF40071B2
:10428000FDF7AEF9029028464FF480710022FDF749
:10429000ADF90220FFF7A0FA28464FF48071012201
:1042A000FDF7A4F90220FFF797FA28464FF40071B2
:1042B000FDF796F9824628464FF480710022FDF7FB
:1042C00095F90220FFF788FA28464FF48071012201
:1042D000FDF78CF90220FFF77FFA28464FF40071B2
:1042E000FDF77EF9834628464FF480710022FDF7E2
:1042F0007DF90220FFF770FA28464FF48071012201
:10430000FDF774F90220FFF767FA28464FF40071B1
:10431000FDF766F9044628464FF480710022FDF748
:1043200065F90220FFF758FA28464FF48071012200
:10433000FDF75CF90220FFF74FFA28464FF40071B1
:10434000FDF74EF9064628464FF480710022FDF72E
:104350004DF90220FFF740FA28464FF48071012200
:10436000FDF744F90220FFF737FA28464FF40071B1
:10437000FDF736F9074628464FF480710022FDF715
:1043800035F90220FFF728FA28464FF48071012200
:10439000FDF72CF90220FFF71FFA28464FF40071B1
:1043A000FDF71EF9804628464FF480710022FDF784
:1043B0001DF90220FFF710FA28464FF48071012200
:1043C000FDF714F90220FFF707FA28464FF40071B1
:1043D000FDF706F9814628464FF480710022FDF76B
:1043E00005F90220FFF7F8F9019808B328464FF4C1
:1043F00000710022FDF7FAF80220FFF7EDF92846D8
:104400004FF480710122FDF7F1F80220FFF7E4F983
:1044100028464FF480710022FDF7E8F80220FFF7EC
:10442000DBF928464FF400710122FDF7DFF817E0B1
:1044300028464FF400710122FDF7D8F80220FFF75B
:10444000CBF928464FF480710122FDF7CFF8022006
:10445000FFF7C2F928464FF480710022FDF7C6F835
:104460000220FFF7B9F90298002818BF0120BAF11D
:10447000000F18BF4FF0010A4AEA40008000BBF16C
:10448000000F18BF4FF0010B40EA4B00002C18BF83
:10449000012420448000002E18BF012640EA460077
:1044A000002F18BF012738448000B8F1000F18BF53
:1044B0004FF0010840EA4800B9F1000F18BF4FF073
:1044C00001094844C0B203B0BDE8F08FB0B540F276
:1044D0000044C4F202040546C20920464FF40071AC
:1044E000FDF784F80220FFF777F920464FF480713A
:1044F0000122FDF77BF80220FFF76EF920464FF40A
:1045000080710022FDF772F8C5F3801220464FF447
:104510000071FDF76BF80220FFF75EF920464FF4BB
:1045200080710122FDF762F80220FFF755F920465D
:104530004FF480710022FDF759F8C5F34012204670
:104540004FF40071FDF752F80220FFF745F92046BD
:104550004FF480710122FDF749F80220FFF73CF982
:1045600020464FF480710022FDF740F8C5F3001299
:1045700020464FF40071FDF739F80220FFF72CF9BF
:1045800020464FF480710122FDF730F80220FFF73A
:1045900023F920464FF480710022FDF727F8C5F378
:1045A000C00220464FF40071FDF720F80220FFF70B
:1045B00013F920464FF480710122FDF717F802200D
:1045C000FFF70AF920464FF480710022FDF70EF83C
:1045D000C5F3800220464FF40071FDF707F8022072
:1045E000FFF7FAF820464FF480710122FCF7FEFF36
:1045F0000220FFF7F1F820464FF480710022FCF70B
:10460000F5FFC5F3400220464FF40071FCF7EEFFC2
:104610000220FFF7E1F820464FF480710122FCF7F9
:10462000E5FF0220FFF7D8F820464FF48071002202
:10463000FCF7DCFF05F0010220464FF40071FCF7A7
:10464000D5FF0220FFF7C8F820464FF48071012201
:10465000FCF7CCFF0220FFF7BFF820464FF4807133
:104660000022FCF7C3FF20464FF400710122BDE891
:10467000B040FCF7BBBF000010B540F20044C4F2EC
:10468000020420464FF400710122FCF7AFFF2046E0
:104690004FF480710122FCF7A9FF0220FFF79CF87C
:1046A00020464FF400710022FCF7A0FF0220FFF724
:1046B00093F820464FF480710022FCF797FF022008
:1046C000BDE81040FFF788B810B540F20044C4F2CE
:1046D000020420464FF400710022FCF787FF0220FD
:1046E000FFF77AF820464FF480710122FCF77EFF35
:1046F0000220FFF771F820464FF400710122FCF709
:1047000075FF0220BDE81040FFF766B8B0B540F273
:104710000044C4F2020420464FF400710122FCF769
:1047200065FF0220FFF758F820464FF48071012200
:10473000FCF75CFF0220FFF74FF8002520464FF4FE
:104740000071FCF74DFF08B3FA2D05F10105F5D313
:1047500020464FF400710022FCF748FF0220FFF7CB
:104760003BF820464FF4807101220125FCF73EFF03
:104770000220FFF731F820464FF400710122FCF7C8
:1047800035FF0220FFF728F801E000BF0025204692
:104790004FF480710022FCF729FF0220FFF71CF87C
:1047A0002846B0BDF0B581B040F61477C2F20007DC
:1047B000044638897989802501FB00F60020002114
:1047C000C6F6004503F03EFC388A25F8020CAEB16F
:1047D000701E032806F0030008D326F0030100BF73
:1047E00004392C802C802C802C80F9D130B1012808
:1047F0002C8003D002282C8018BF2C8001B0F0BD83
:104800002DE9F04F85B00E9CA04228BFA24203D2F2
:1048100005B0BDE8F08F00BF0E46A14228BFA342FD
:10482000F6D3111A0546A3EB060089460B4618BFBE
:104830004FF0FF3948BF4B4200290146C8BF4FF037
:104840000109002818BF4FF0FF31049044BF4742D0
:1048500004970028C8BF012104984FF0000B834241
:1048600088BF1846029001304FF000084FF0000A50
:10487000019003911F460F9BA8B2B1B2224602F0ED
:104880004DFE3B4608EB07000499029F5944B0EBEC
:104890000708D4BF80464D44B1EB070BD8BF8B4609
:1048A0000399C8BF0E440AF1010A019F1FFA8AF05A
:1048B0008742DFD2ACE700002DE9F04F89B00293C8
:1048C0000890032040F27E09DDF808B01546A0EB01
:1048D00042024FF0FF3A0A24C6F60049019100BF98
:1048E0000899019E0AF1010A0AEB01000F46711BAB
:1048F00089B280B207920691049003F0A3FB40F6C0
:104900001470C2F20000008AA6EB0A01A9F80000A8
:10491000E8191FFA80F889B24046A9F802B005915B
:1049200003F090FB40F61477C2F20007388AA9F82A
:1049300000000AEB060081B24046A9F802B00391DC
:1049400003F080FB388AA9F80000A9F802B0A81982
:1049500086B20498314603F075FB388AB846A9F848
:104960000000A9F802B008983146A0EB0A0087B20F
:10497000384603F067FBB8F81000A9F80000A9F862
:1049800002B008980399401B86B2304603F05AFBE8
:10499000B8F81000A9F80000A9F802B00699384646
:1049A00003F050FBB8F810004746A9F80000A9F83A
:1049B00002B00599304603F045FB079AB8F810009D
:1049C000D143A9F80000A9F802B0A4EB850005EBDB
:1049D000E175002A04F1040158BF041D2244AA45D0
:1049E0000C46FFF67DAF09B0BDE8F08F2DE9F04F22
:1049F00085B00C46111A0546A3EB04000A4688460A
:104A000018BF4FF0FF3248BFC1F10008002901462E
:104A1000C8BF0122002818BF4FF0FF31049044BFE7
:104A2000474204970028C8BF012104987E2680458C
:104A300088BF4046C6F60046029001304FF0000A9B
:104A40004FF0000B4FF0000901900391A8B2A1B202
:104A5000174603F0F7FA40F61470C2F20000008A1D
:104A60003A4630800499029F0BEB08005144B0EBAA
:104A7000070BD4BF83461544B1EB070AD8BF8A465B
:104A80000399C8BF0C4409F10109019F1FFA89F07D
:104A900087420E987080D9D205B0BDE8F08F000033
:104AA00010B5144603F0CEFA40F61470C2F20000BE
:104AB000008A7E21C6F6004108804C8010BD0000AF
:104AC0002DE9F04F89B08146101A0D4640F27E0B59
:104AD00001468246DDF848800193C6F6004B0492F9
:104AE00018BF4FF0FF3148BFC0F1000A0AF10103BF
:104AF00000264F4600240028C8BF012108910593D5
:104B0000B8B2294603F09EFA40F61470C2F20000D3
:104B1000008A059BABF80000002E08BF5644089899
:104B200004F1010418BF0744A0B28342ABF802802D
:104B3000E6D201980095401B0546CDF80CA018BFA1
:104B40004FF0FF3540F61472079044BF434207937D
:104B50000028C8BF01250798C2F20002009F414605
:104B600001300026002494465B4606908A46B9B27E
:104B70004846E346984603F065FABBF81000002E5D
:104B8000A8F8000007980CBF06442F440134069A89
:104B9000A0B24346DC4651468242A8F802A0E5D2C4
:104BA0000295019D059F0026002400BF1FFA89F091
:104BB000294603F047FA5846BBF81000002EA8F823
:104BC0000000039808BF0644089804F1010418BFC8
:104BD0008144A0B2874242465146A8F802A0E5D2DD
:104BE000DDE90679009D0026002400BF0498A9B2E3
:104BF00003F028FA5846BBF81000002EA8F8000071
:104C000008BF4E44029804F1010418BF0544A0B245
:104C1000874242465146A8F802A0E7D209B0BDE853
:104C2000F08F000080B5CF2003F04AFE002003F093
:104C300037FEC12003F034FE302003F031FEED20BA
:104C400003F03EFE642003F02BFE032003F028FE59
:104C5000122003F025FE812003F022FEE82003F05D
:104C60002FFE852003F01CFE102003F019FE7A2091
:104C700003F016FECB2003F023FE392003F010FED4
:104C80002C2003F00DFE002003F00AFE342003F078
:104C900007FE022003F004FEF72003F011FE20209F
:104CA00003F0FEFDEA2003F00BFE002003F0F8FD08
:104CB000002003F0F5FDC02003F002FE1B2003F0EE
:104CC000EFFDC12003F0FCFD012003F0E9FDC5204C
:104CD00003F0F6FD302003F0E3FD302003F0E0FDAB
:104CE000C72003F0EDFDB72003F0DAFD362003F016
:104CF000E7FD482003F0D4FD3A2003F0E1FD552004
:104D000003F0CEFDB12003F0DBFD002003F0C8FD71
:104D10001A2003F0C5FDB62003F0D2FD0A2003F0EF
:104D2000BFFDA22003F0BCFDF22003F0C9FD00206E
:104D300003F0B6FD262003F0C3FD012003F0B0FD13
:104D4000E02003F0BDFD0F2003F0AAFD2A2003F0B0
:104D5000A7FD282003F0A4FD082003F0A1FD0E20EC
:104D600003F09EFD082003F09BFD542003F098FD06
:104D7000A92003F095FD432003F092FD0A2003F0E3
:104D80008FFD0F2003F08CFD002003F089FD002033
:104D900003F086FD002003F083FD002003F080FD7A
:104DA000E12003F08DFD002003F07AFD152003F0D3
:104DB00077FD172003F074FD072003F071FD11202B
:104DC00003F06EFD062003F06BFD2B2003F068FD61
:104DD000562003F065FD3C2003F062FD052003F042
:104DE0005FFD102003F05CFD0F2003F059FD3F2014
:104DF00003F056FD3F2003F053FD0F2003F050FD5C
:104E00002B2003F05DFD002003F04AFD002003F09D
:104E100047FD012003F044FD3F2003F041FD2A201F
:104E200003F04EFD002003F03BFD002003F038FDB1
:104E3000002003F035FDEF2003F032FD112003F0D8
:104E40003FFD7820FCF7DAFA2920BDE8804003F026
:104E500037BD000080B5FF2003F032FDFF2003F0D6
:104E60001FFD982003F01CFD062003F019FDBC2057
:104E700003F026FD012003F013FD0F2003F010FDC9
:104E8000612003F00DFDFF2003F00AFD012003F077
:104E900007FD012003F004FD0B2003F001FD1020AD
:104EA00003F0FEFC372003F0FBFC632003F0F8FC6A
:104EB000FF2003F0F5FCFF2003F0F2FC012003F0DB
:104EC000EFFC012003F0ECFC002003F0E9FC0020E3
:104ED00003F0E6FCFF2003F0E3FC522003F0E0FCCB
:104EE000012003F0DDFC002003F0DAFC402003F099
:104EF000D7FCBD2003F0E4FC012003F0D1FC23200B
:104F000003F0CEFC452003F0CBFC672003F0C8FC87
:104F1000012003F0C5FC232003F0C2FC452003F070
:104F2000BFFC672003F0BCFCBE2003F0C9FC0020DE
:104F300003F0B6FC012003F0B3FCAB2003F0B0FC9F
:104F4000602003F0ADFC222003F0AAFC222003F035
:104F5000A7FC222003F0A4FC222003F0A1FC2220C5
:104F600003F09EFCC72003F0ABFC362003F098FC56
:104F7000ED2003F0A5FC7F2003F092FC0F2003F04E
:104F80008FFCC02003F09CFC0F2003F089FC0B2059
:104F900003F086FC0A2003F083FCFC2003F090FC65
:104FA000082003F07DFCDF2003F08AFC002003F0E2
:104FB00077FC002003F074FC002003F071FC00205B
:104FC00003F06EFC002003F06BFC202003F068FC73
:104FD000F32003F075FC742003F062FCB42003F0AE
:104FE0006FFC002003F05CFC002003F059FC002063
:104FF00003F056FCF72003F063FC822003F050FC22
:10500000B12003F05DFC002003F04AFC132003F004
:1050100047FC132003F044FCF22003F051FC8020F5
:1050200003F03EFC042003F03BFC402003F038FC7E
:10503000282003F035FCC12003F042FC172003F0C8
:105040002FFC882003F02CFC882003F029FC202072
:1050500003F026FCE02003F033FC002003F020FCEA
:105060000A2003F01DFC122003F01AFC102003F0AC
:1050700017FC0E2003F014FC202003F011FCCC20C0
:1050800003F00EFC072003F00BFC062003F008FCE5
:105090000B2003F005FC0E2003F002FC0F2003F0B0
:1050A000FFFB0D2003F0FCFB152003F0F9FB1020A3
:1050B00003F0F6FB002003F0F3FBE12003F000FC1B
:1050C000002003F0EDFB0B2003F0EAFB132003F0BC
:1050D000E7FB0D2003F0E4FB0E2003F0E1FB1B20B7
:1050E00003F0DEFB712003F0DBFB062003F0D8FBAE
:1050F000062003F0D5FB0A2003F0D2FB0F2003F0BB
:10510000CFFB0E2003F0CCFB0F2003F0C9FB1520D2
:1051100003F0C6FB0C2003F0C3FB002003F0C0FB30
:105120002A2003F0CDFB002003F0BAFB002003F09F
:10513000B7FB012003F0B4FBDF2003F0B1FB2B2011
:1051400003F0BEFB002003F0ABFB002003F0A8FB44
:10515000032003F0A5FB1F2003F0A2FB3A2003F07D
:10516000AFFB552003F09CFB362003F0A9FB002089
:1051700003F096FB112003F0A3FB7820FCF73EF927
:10518000292003F09DFB1420FCF738F92C20BDE802
:10519000804003F095BB000080B5ED2003F090FB4C
:1051A000012003F07DFBFE2003F07AFBEE2003F0EC
:1051B00087FBDE2003F074FB212003F071FBF1205C
:1051C00003F07EFB012003F06BFBDF2003F078FB94
:1051D000102003F065FBC42003F072FB8F2003F066
:1051E0005FFBC62003F06CFB002003F059FBE220BC
:1051F00003F056FBE22003F053FBE22003F050FBE8
:10520000BF2003F05DFBAA2003F04AFBB02003F0AF
:1052100057FB0D2003F044FB002003F041FB0D2061
:1052200003F03EFB002003F03BFB112003F038FBB2
:10523000002003F035FB192003F032FB002003F0BF
:105240002FFB212003F02CFB002003F029FB2D2055
:1052500003F026FB002003F023FB3D2003F020FB9E
:10526000002003F01DFB5D2003F01AFB002003F07B
:1052700017FB5D2003F014FB002003F011FBB120AD
:1052800003F01EFB802003F00BFB002003F008FB63
:105290008B2003F005FB002003F002FB962003F0B7
:1052A000FFFA002003F0FCFAB22003F009FB002013
:1052B00003F0F6FA002003F0F3FA022003F0F0FA0C
:1052C000002003F0EDFA032003F0EAFA002003F0D7
:1052D000E7FAB32003F0F4FA002003F0E1FA00202B
:1052E00003F0DEFA002003F0DBFA002003F0D8FA26
:1052F000002003F0D5FA002003F0D2FA002003F0DA
:10530000CFFA002003F0CCFA002003F0C9FA002005
:1053100003F0C6FA002003F0C3FA002003F0C0FA3D
:10532000002003F0BDFA002003F0BAFA002003F0D9
:10533000B7FA002003F0B4FA002003F0B1FA00201D
:1053400003F0AEFA002003F0ABFA002003F0A8FA55
:10535000002003F0A5FA002003F0A2FA002003F0D9
:105360009FFA002003F09CFAB42003F0A9FA8B20E6
:1053700003F096FA002003F093FA962003F090FAD7
:10538000002003F08DFAA12003F08AFA002003F038
:1053900087FAB52003F094FA022003F081FA002086
:1053A00003F07EFA032003F07BFA002003F078FA82
:1053B000042003F075FA002003F072FAB62003F01F
:1053C0007FFA002003F06CFA002003F069FAB7209E
:1053D00003F076FA002003F063FA002003F060FA8D
:1053E0003F2003F05DFA002003F05AFA5E2003F03C
:1053F00057FA002003F054FA642003F051FA002019
:1054000003F04EFA8C2003F04BFA002003F048FA28
:10541000AC2003F045FA002003F042FADC2003F050
:105420003FFA002003F03CFA702003F039FA002024
:1054300003F036FA902003F033FA002003F030FA3C
:10544000EB2003F02DFA002003F02AFADC2003F011
:1054500027FA002003F024FAB82003F031FA0020E4
:1054600003F01EFA002003F01BFA002003F018FAE4
:10547000002003F015FA002003F012FA002003F0D8
:105480000FFA002003F00CFA002003F009FABA200A
:1054900003F016FA242003F003FA002003F000FAC8
:1054A000002003F0FDF9002003F0FAF9C12003F019
:1054B00007FA202003F0F4F9002003F0F1F954205A
:1054C00003F0EEF9002003F0EBF9FF2003F0E8F918
:1054D000002003F0E5F9C22003F0F2F90A2003F0FE
:1054E000DFF9002003F0DCF9042003F0D9F90020F3
:1054F00003F0D6F9C32003F0E3F93C2003F0D0F920
:10550000002003F0CDF93A2003F0CAF9002003F09F
:10551000C7F9392003F0C4F9002003F0C1F937209E
:1055200003F0BEF9002003F0BBF93C2003F0B8F90A
:10553000002003F0B5F9362003F0B2F9002003F0A3
:10554000AFF9322003F0ACF9002003F0A9F92F20C5
:1055500003F0A6F9002003F0A3F92C2003F0A0F932
:10556000002003F09DF9292003F09AF9002003F0B0
:1055700097F9262003F094F9002003F091F92420F4
:1055800003F08EF9002003F08BF9242003F088F952
:10559000002003F085F9232003F082F9002003F0B6
:1055A0007FF93C2003F07CF9002003F079F93620E4
:1055B00003F076F9002003F073F9322003F070F95C
:1055C000002003F06DF92F2003F06AF9002003F0AA
:1055D00067F92C2003F064F9002003F061F9292019
:1055E00003F05EF9002003F05BF9262003F058F980
:1055F000002003F055F9242003F052F9002003F0B5
:105600004FF9242003F04CF9002003F049F923203E
:1056100003F046F9002003F043F9C42003F050F9E9
:10562000622003F03DF9002003F03AF9052003F071
:1056300037F9002003F034F9842003F031F9002019
:1056400003F02EF9F02003F02BF9002003F028F9E5
:10565000182003F025F9002003F022F9A42003F01C
:105660001FF9002003F01CF9182003F019F900209D
:1056700003F016F9502003F013F9002003F010F99D
:105680000C2003F00DF9002003F00AF9172003F0B5
:1056900007F9002003F004F9952003F001F9002038
:1056A00003F0FEF8F32003F0FBF8002003F0F8F815
:1056B000E62003F0F5F8002003F0F2F8C52003F02F
:1056C000FFF8322003F0ECF8002003F0E9F8442062
:1056D00003F0E6F8002003F0E3F8652003F0E0F8BB
:1056E000002003F0DDF8762003F0DAF8002003F064
:1056F000D7F8882003F0D4F8002003F0D1F8C620B2
:1057000003F0DEF8202003F0CBF8002003F0C8F807
:10571000172003F0C5F8002003F0C2F8012003F0C1
:10572000BFF8002003F0BCF8C72003F0C9F8002040
:1057300003F0B6F8002003F0B3F8002003F0B0F84F
:10574000002003F0ADF8C82003F0BAF8002003F001
:10575000A7F8002003F0A4F8002003F0A1F800202F
:1057600003F09EF8C92003F0ABF8002003F098F88E
:10577000002003F095F8002003F092F8002003F0D9
:105780008FF8002003F08CF8002003F089F8002047
:1057900003F086F8002003F083F8002003F080F87F
:1057A000002003F07DF8002003F07AF8002003F0D9
:1057B00077F8002003F074F8002003F071F800205F
:1057C00003F06EF8002003F06BF8E02003F078F8A7
:1057D000162003F065F8002003F062F81C2003F0A7
:1057E0005FF8002003F05CF8212003F059F8002056
:1057F00003F056F8362003F053F8002003F050F879
:10580000462003F04DF8002003F04AF8522003F040
:1058100047F8002003F044F8642003F041F800202A
:1058200003F03EF87A2003F03BF8002003F038F84C
:105830008B2003F035F8002003F032F8992003F0B4
:105840002FF8002003F02CF8A82003F029F80020FE
:1058500003F026F8B92003F023F8002003F020F825
:10586000C42003F01DF8002003F01AF8CA2003F04A
:1058700017F8002003F014F8D22003F011F80020EC
:1058800003F00EF8D92003F00BF8002003F008F81D
:10589000E02003F005F8002003F002F8F32002F006
:1058A000FFFF002002F0FCFFE12003F009F81620C2
:1058B00002F0F6FF002002F0F3FF1C2002F0F0FFE0
:1058C000002002F0EDFF222002F0EAFF002002F0AB
:1058D000E7FF362002F0E4FF002002F0E1FF452060
:1058E00002F0DEFF002002F0DBFF522002F0D8FFC2
:1058F000002002F0D5FF642002F0D2FF002002F069
:10590000CFFF7A2002F0CCFF002002F0C9FF8B20ED
:1059100002F0C6FF002002F0C3FF992002F0C0FF92
:10592000002002F0BDFFA82002F0BAFF002002F024
:10593000B7FFB92002F0B4FF002002F0B1FFC4208D
:1059400002F0AEFF002002F0ABFFCA2002F0A8FF79
:10595000002002F0A5FFD22002F0A2FF002002F0FA
:105960009FFFD82002F09CFF002002F099FFE0206A
:1059700002F096FF002002F093FFF32002F090FF68
:10598000002002F08DFFE22002F09AFF052002F0D5
:1059900087FF002002F084FF0B2002F081FF00202F
:1059A00002F07EFF1B2002F07BFF002002F078FF58
:1059B000342002F075FF002002F072FF442002F054
:1059C0006FFF002002F06CFF4F2002F069FF002003
:1059D00002F066FF612002F063FF002002F060FF2A
:1059E000792002F05DFF002002F05AFF882002F0CB
:1059F00057FF002002F054FF972002F051FF0020D3
:105A000002F04EFFA62002F04BFF002002F048FFFC
:105A1000B72002F045FF002002F042FFC22002F052
:105A20003FFF002002F03CFFC72002F039FF0020BA
:105A300002F036FFD12002F033FF002002F030FFE9
:105A4000D62002F02DFF002002F02AFFDD2002F018
:105A500027FF002002F024FFF32002F021FF0020A6
:105A600002F01EFFE32002F02BFF052002F018FFDA
:105A7000002002F015FF0A2002F012FF002002F0C1
:105A80000FFF1C2002F00CFF002002F009FF332062
:105A900002F006FF002002F003FF442002F000FFA6
:105AA000002002F0FDFE502002F0FAFE002002F07D
:105AB000F7FE622002F0F4FE002002F0F1FE7820F2
:105AC00002F0EEFE002002F0EBFE882002F0E8FE7D
:105AD000002002F0E5FE972002F0E2FE002002F036
